:1000000027C04BC025C949C048C0D8C846C045C054
:1000100044C043C042C041C040C03FC03EC00000D9
:10002000000037000000000036000000000038002B
:10003000020202020202020202020102040810206D
:10004000200410080102000004000000000059090B
:1000500011241FBECFE5D2E0DEBFCDBF10E0A0E689
:10006000B0E0E0E9FEE102C005900D92AC38B107C6
:10007000D9F721E0ACE8B0E001C01D92A935B20784
:10008000E1F710E0C8E2D0E003C02197FE01F4DE02
:10009000C732D107D1F760D9F9CEB2CF20E0DC0169
:1000A00060FF03C001C02D932D936250E0F77040B4
:1000B000D0F70895840F951F6817790724F4861BDD
:1000C000970B8150089597FF03C0860F971F8F5F8E
:1000D000089580E991E00895823089F018F4813024
:1000E00051F00895833019F0843009F008958CB5EB
:1000F0008F7D8CBD08958AB58F778ABD08958AB5A6
:100100008F7DFBCFCF93DF93282F30E0F901EC5B9D
:10011000FF4F8491F901E65CFF4FD491F901E05D56
:10012000FF4FC491CC2399F08111D6DFEC2FF0E082
:10013000EE0FFF1FEC5DFF4FA591B491EC91ED2305
:1001400081E090E009F480E0DF91CF91089580E0B4
:1001500090E0FACFCF93DF9390E0FC01E65CFF4F95
:100160002491805D9F4FFC0184918823D1F090E021
:10017000880F991FFC01E25EFF4FA591B491FC012D
:10018000E65DFF4FC591D49161110EC09FB7F89401
:100190008C91E22FE0958E238C932881E223E883D3
:1001A0009FBFDF91CF9108958FB7F894EC91E22B28
:1001B000EC938FBFF6CF3FB7F89480919100909168
:1001C0009200A0919300B091940022B708B601FE6E
:1001D00005C02F3F19F00196A11DB11D3FBFBA2FD9
:1001E000A92F982F8827BC01CD01620F711D811D99
:1001F000911D43E0660F771F881F991F4A95D1F71D
:1002000008953F924F925F926F927F928F929F924A
:10021000AF92BF92CF92DF92EF92FF920F931F9314
:10022000CF93DF9300D01F92CDB7DEB7D0900401FB
:100230008091070190910801A0910901B0910A01F4
:10024000892B8A2B8B2BD1F0B6DF00910001109106
:1002500001012091020130910301601B710B820B9F
:10026000930B009107011091080120910901309131
:100270000A016017710782079307D0F29CDF609331
:100280000001709301018093020190930301E091BA
:100290000F01F0911001309759F040910B015091EE
:1002A0000C0160910D0170910E018D2D0995D82ED4
:1002B000E090FE00F090FF004D2C512C712C612C31
:1002C000E114F10409F45AC0D7011C96CC901C9794
:1002D00080910501909106018436910510F41C96D9
:1002E0001C92D701ED91FC918280938019821A8231
:1002F0001B82DD2069F15701B6E0AB0EB11C10E0A6
:1003000000E0F50161915F016623E9F0328033205E
:10031000D1F070E090E080E06F5F7F4F8F4F9F4F94
:10032000A301920147DD232D30E050E040E02F5F34
:100330003F4F4F4F5F4F3EDDE1E0F0E0EC0FFD1F20
:10034000E00FF11F80830F5F1F4F03301105C9F6C7
:1003500009811A812B81D7011D964D915C911E97C1
:1003600012966D917C91C701F4010995D7011C96F5
:10037000CC921C971496ED90FC90A2CF8091FC003B
:100380009091FD009C012F5F3F4F3093FD00209323
:10039000FC0049970CF445C08FB7F8940091F40025
:1003A0001091F5002091F6003091F7008FBF8091F9
:1003B000F8009091F900A091FA00B091FB00081BA1
:1003C000190B2A0B3B0B21F401E010E020E030E098
:1003D0008091FC009091FD0068EE73E0DADCBC01D6
:1003E000990F880B990BA901980110DD3093060134
:1003F000209305011092FD001092FC002FB7F89495
:100400008091F4009091F500A091F600B091F70072
:100410002FBF8093F8009093F900A093FA00B09357
:10042000FB000F900F900F90DF91CF911F910F91D4
:10043000FF90EF90DF90CF90BF90AF909F908F9004
:100440007F906F905F904F903F9008958F929F9212
:10045000AF92BF92CF92DF92EF92FF924B015C017D
:10046000AADE6B017C01A7DE6C197D098E099F094C
:10047000683E734081059105B0F321E0821A91082E
:10048000A108B10888EEC80E83E0D81EE11CF11C5B
:1004900081149104A104B10431F7FF90EF90DF9033
:1004A000CF90BF90AF909F908F9008958F929F9222
:1004B000AF92BF92CF92DF92EF92FF926B017C01DD
:1004C0008FB7F8948090F4009090F500A090F6001B
:1004D000B090F7008FBF61E070E080E090E0B6DFA1
:1004E00090DE2FB7F8948091F4009091F500A091E0
:1004F000F600B091F7002FBF88199909AA09BB0926
:100500008C159D05AE05BF0530F3FF90EF90DF9091
:10051000CF90BF90AF909F908F9008951F93CF93EF
:10052000DF93EC01DB014881E9811A81C42FCC0FF4
:10053000CC0FCC0FD0E0CE0166E570E02ADC292F8D
:10054000842F8074342F307247FD6AC0811157C0E8
:10055000311105C0892F8095492F282F04C045E50A
:10056000490F30E02BEAEF3F01F1EE2309F476C0AA
:10057000E0956E2F70E0CB010CDCC1E0C90FEC2FD1
:10058000E095F0E03196822F90E0BF0102DC292F48
:10059000842F90E0BF01FDDB492F832F90E0BF0146
:1005A000F8DB2C0F4C0F392F3C0FE42F1F3FE9F0E5
:1005B000612F70E0CB01EDDBE1E0111101C0E0E063
:1005C000E90F09F44FC0CE2FD0E02196822F90E0A2
:1005D000BE01DFDB292F842F90E0BE01DADBE92F9B
:1005E000832F90E0BE01D5DB392F2C931196EC932D
:1005F000119712963C93DF91CF911F91089531117D
:1006000009C0CE016BEA70E0C4DB8BEA891B4AEAC1
:10061000420FA3CF80E0492F4095392F20E0A3CF90
:1006200081110FC0311109C0CE016BEA70E0B1DB5E
:100630004BEA491B35E5390FF1CF392F309540E0B2
:1006400092CF311106C085E5890F3BEA321B282F76
:10065000F6CF8AEA890F90E035E5F8CF3FEF4FEF0C
:100660002FEFA3CF30E020E0C0CFDA01FC01CB01B7
:1006700063E070E08EDB8E0F9F1F2D913D914C91BA
:100680001297219331934193E817F907B1F7089531
:10069000EF92FF920F931F93CF93DF9330918D00D2
:1006A0003F5F232F277020938D00C0E830FFC0E00C
:1006B00021FDC064247009F0C062C05FFC018C01A0
:1006C0000D5F1F4FE12CFF24F394D0E024852223FB
:1006D00031F0622F70E0C70186DB21E0260F218711
:1006E000822F90E00196BE0154DB911111C0168259
:1006F000222319F06FEF620F618731960E171F07E3
:1007000029F7DF91CF911F910F91FF90EF900895FE
:1007100091509683EDCF4F925F927F928F929F92EE
:10072000AF92BF92CF92DF92EF92FF920F931F93FF
:10073000CF93DF932C01EB013EDDF2012785308959
:10074000621B730B6A307105B8F3F8948A819B8140
:10075000181619060CF040C1E881F98168B3862E9D
:10076000689484F838B33F7E38BBDA848F812D2DAE
:10077000281B822F2F834F85042E000C550BAA8136
:10078000BB817D85FC84EE847F5FF394E3949E813E
:100790009884B984AB841181C12C6C2D0C2D2C2D27
:1007A0002181112788942111280F08F42FEF8195BA
:1007B000889470FD120F1795889471FD120F17958C
:1007C000889472FD120F1795889473FD120F179578
:1007D000889474FD120F1795889475FD120F179564
:1007E000889476FD120F1795889477FD120F179550
:1007F0008894622F7111612F8D0D162F002C88BAED
:1008000017FF38BB20816627889438BB2111290F38
:1008100088BA16FF38BB08F42FEF9195889438BB3F
:10082000F0FC620F88BA15FF38BB67958894F1FC1D
:10083000620F38BB6795889488BA14FF38BBF2FC06
:10084000620F6795889438BBF3FC620F88BA13FF78
:1008500038BB67958894F4FC620F38BB6795889421
:1008600088BA12FF38BBF5FC620F6795889438BBD5
:10087000F6FC620F88BA11FF38BB67958894F7FCC5
:10088000620F38BB6795889488BA10FF38BB122F67
:10089000F110162F9B0D38BB00C088BA17FF38BB6C
:1008A00022816627889438BB2111290D88BA16FF4A
:1008B00038BB08F42FEFE40FF51F38BBE0FC620FE4
:1008C00088BA15FF38BB67958894E1FC620F38BB86
:1008D0006795889488BA14FF38BBE2FC620F67956D
:1008E000889438BBE3FC620F88BA13FF38BB679566
:1008F0008894E4FC620F38BB6795889488BA12FF2D
:1009000038BBE5FC620F6795889438BBE6FC620F44
:1009100088BA11FF38BB67958894E7FC620F38BB33
:100920006795889488BA10FF38BB122FE110162FF4
:10093000919438BB9A0C002C88BA17FF38BB2181E0
:100940006627889438BB2111280F88BA16FF38BB58
:1009500008F42FEF8195889438BB70FD620F88BA38
:1009600015FF38BB6795889471FD620F38BB67959A
:10097000889488BA14FF38BB72FD620F679588941B
:1009800038BB73FD620F88BA13FF38BB6795889434
:1009900074FD620F38BB6795889488BA12FF38BB24
:1009A00075FD620F6795889438BB76FD620F88BA33
:1009B00011FF38BB6795889477FD620F38BB679548
:1009C000889488BA10FF38BB122F7111162F8D0D25
:1009D00038BB119709F013CF0A80DB81C02DBE010F
:1009E0000D2E000C880B990B20EF30E040E050E01A
:1009F000E1D96B017C01F3E0F694E794D794C794B6
:100A0000FA95D1F7CE016BE970E0C3D9292F30E018
:100A1000C901B0E0A0E0880F991FAA1FBB1F8C0D71
:100A20009D1DAE1DBF1D893E63E09607A105B10562
:100A300090F1885E9340A109B10922E0B695A7958F
:100A4000979587952A95D1F79C0143E0220F331F94
:100A50004A95E1F7232F332760918C0070E0860FD1
:100A6000971F820F931F4091F4005091F500609101
:100A7000F6007091F700292F3327420F531F611D95
:100A8000711D4093F4005093F5006093F60070934D
:100A9000F70080938C0078948EDBF201708B67876F
:100AA000DF91CF911F910F91FF90EF90DF90CF904A
:100AB000BF90AF909F908F907F905F904F900895E0
:100AC000BC9A08956F927F928F92CF92DF92EF92AD
:100AD000FF920F931F93CF93DF93CDB7DEB762974B
:100AE0000FB6F894DEBF0FBECDBF6C017A0138019E
:100AF000822EDC011C962C91CA0157FF04C0882766
:100B00009927841B950B7A8369839C838B839E83AF
:100B10008D836D867E868F86213041F5CE010196CC
:100B2000B7DD83E0888B1A8A198AF7FE02C08DEF41
:100B3000888BD601ED91FC910484F585E02DBE01F2
:100B40006F5F7F4FC601099562960FB6F894DEBFBE
:100B50000FBECDBFDF91CF911F910F91FF90EF900E
:100B6000DF90CF908F907F906F9008951C861B86AA
:100B70001A86198618861F82D4CFEF92FF920F93A0
:100B80001F93CF93DF93CDB7DEB762970FB6F8947C
:100B9000DEBF0FBECDBF7C01DC011C968C917A8339
:100BA00069835C834B835E834D830D871E872F870C
:100BB0008130F1F4CE0101966BDD188A1A8A198A08
:100BC000D701ED91FC910484F585E02DBE016F5FA6
:100BD0007F4FC701099562960FB6F894DEBF0FBE2E
:100BE000CDBFDF91CF911F910F91FF90EF900895AE
:100BF0001C861B861A86198618861F82DECFCF9226
:100C0000DF92EF920F931F93CF93DF93CDB7DEB7B1
:100C100029970FB6F894DEBF0FBECDBF1092F0003B
:100C20001092EF001091B80011111EC080912301A5
:100C3000823209F040C060912801809127018093A1
:100C400056016093570170E090E080E0ABD726E951
:100C500035E946E95EE332D820E030E044E353E48E
:100C60000FD772D7609358018091B70081116CC083
:100C7000111112C083E080938F0010928E0080913A
:100C80002301823249F482E1E9E2F1E0A1E1B1E03D
:100C900001900D928A95E1F78091F1008330A1F0E7
:100CA00082E1E1E1F1E0A9EBB0E001900D928A95DB
:100CB000E1F781E095C0109256018FEF80935701C4
:100CC0008EEF80935801D0CF0091B600BE01695FCE
:100CD0007F4F86E591E022DC10918E00CF80D88492
:100CE000E9841C821D821E82BE016F5F7F4FCE0190
:100CF000049614DCAE014F5F5F4F66E070E089EB55
:100D000090E0B3DC812F90E063E070E042D8011105
:100D10000EC09C0127543F4F8F5E9E4FFC01808187
:100D20009181A281F90180839183A283C2CFFC01CA
:100D3000E754FF4FC082D182E2828F5E9E4FFC015A
:100D4000C082D182E282B5CF813091F5111124C0E9
:100D500082E080938F001092560182E080936200BF
:100D6000BE016F5F7F4F86E591E0D8DBAE014F5F3C
:100D70005F4F66E070E089EB90E077DC29960FB674
:100D8000F894DEBF0FBECDBFDF91CF911F910F91C1
:100D9000EF90DF90CF9008954091600050E08091F7
:100DA00056016FEF70E090E085D980935601D5CF62
:100DB0008230B9F5111117C080938F00BE016F5FAB
:100DC0007F4F86E591E0AADBAE014F5F5F4F66E0A3
:100DD00070E089EB90E049DC81E08093B80082E02C
:100DE00080936200CBCFE8ECF0E089EB90E0429199
:100DF000329122912383348345838E179F07B9F75D
:100E00004091600050E0809156016FEF70E090E0FB
:100E100051D98093560169EB70E086E591E07EDB65
:100E2000DECF833009F0AACF111103C082E0809396
:100E30008F00BE016F5F7F4F86E591E06FDBAE01F3
:100E40004F5F5F4F66E070E089EB90E00EDC31CFE2
:100E5000CF92DF92EF92CF93DF93A3E6B0E0EBEC7B
:100E6000F0E030E020E08C918217A8F0822F90E033
:100E700063E070E08ED7855C9E4FC080D180E280B9
:100E8000EC01C882D982EA822F5FEDCF11963396AA
:100E900021E0280FE8CF3F5F3630C1F7DF91CF91D7
:100EA000EF90DF90CF900895982F613021F481303A
:100EB00021F482E00895611102C081E0911180E087
:100EC000089590E080E00895FC0185859685089559
:100ED0000F931F93CF93DF9300D01F92CDB7DEB750
:100EE000AB0119821A821B82DC01ED91FC91019009
:100EF000F081E02D00E010E020E0BE016F5F7F4F49
:100F000009950F900F900F90DF91CF911F910F9146
:100F10000895FF920F931F93CF93DF9303E211E0A5
:100F2000D0E0C0E0F801F1908F01CE0192D5F81623
:100F300019F06F2DCE0195D52196C831D10591F7C5
:100F400083E291E0DF91CF911F910F91FF9008957F
:100F500099D70F931F93CF93DF9300D000D0CDB7D5
:100F6000DEB769837A838B838EE18093040182E00C
:100F70008C83AE014F5F5F4F69E070E08BE391E0DF
:100F800074DB3FD964E670E080E090E05FDA0091C6
:100F9000FE001091FF0001151105A9F0F801228152
:100FA00033812115310541F08585968563E070E038
:100FB000F0D6BC01C90172D8F80104811581EBCFCC
:100FC000E1E0EC83D6CF1DD964E670E080E090E0EC
:100FD0003DDAFC81F130A1F780916100809304013A
:100FE0000F900F900F900F90DF91CF911F910F9165
:100FF0000895CF93DF93EB01843071F48091B700B3
:10100000AB0163E070E090E055D88093B700109298
:10101000B800DF91CF91F3CD8530B9F460E070E88E
:1010200080E097DF4091F1004C0F5D2F511D44305F
:1010300051053CF457FD07C04093F1001092B600F3
:10104000E6CF43E0F9CF40E0F7CF8730C9F44091D5
:101050006100460F572F511D493C51056CF457FD57
:101060000DC0409361004093040170E060E088E0AF
:10107000C0DFDF91CF91C5C848ECF3CF40E0F1CF9E
:10108000863081F46FEF70E080E063DF60918F0065
:101090006150770B8091B600AE0190E00BD8809341
:1010A000B600B7CF823051F480918E00AB0165E07D
:1010B00070E090E0FFD780938E00ABCF8830B1F521
:1010C0008091B700833048F09091560190932701AA
:1010D000909157019093280102C08111F9CF90910E
:1010E000610090932401809325018091600080939A
:1010F000260182E28093230182E1E1E1F1E0A9E2AD
:10110000B1E001900D928A95E1F703DFCD2BF1F06C
:1011100064E670E080E090E099D91092F1001092BE
:10112000B60060E070E08FEF14DF73CF833071F4AE
:1011300040916000460F572F511D80E44134510506
:101140001CF457FF06C081E080936000DF91CF91CF
:101150000895409360004423B1F3F8CF811121C07A
:1011600090915701690F711D6F3F710509F0BCF433
:1011700077FF862F80935701682F70E090E080E022
:1011800011D526E935E946E95EE398D520E030E05F
:1011900044E353E475D4D8D46093580130CD8FEF35
:1011A000E9CF813051F480915601AB016FEF70E0CF
:1011B00090E080D780935601F1CF1BCF1F920F9202
:1011C0000FB60F9211242F933F938F939F93AF935A
:1011D000BF938091F4009091F500A091F600B0913A
:1011E000F7003091900026E0230F2D3758F5029636
:1011F000A11DB11D209390008093F4009093F50001
:10120000A093F600B093F700809191009091920026
:10121000A0919300B09194000196A11DB11D8093FF
:10122000910090939200A0939300B0939400BF918B
:10123000AF919F918F913F912F910F900FBE0F9083
:101240001F90189529E8230F0396A11DB11DD2CF39
:101250001F920F920FB60F9211242F933F934F932B
:101260005F936F937F938F939F93AF93BF93EF930E
:10127000FF9380E047D78093B40082E043D7809308
:10128000B20081E03FD78093B00081E08093F3000B
:10129000FF91EF91BF91AF919F918F917F916F914E
:1012A0005F914F913F912F910F900FBE0F901F9024
:1012B0001895E4E0F1E08FEF8083128211821486AA
:1012C00013864FEF5FEFBA014783508761877287BC
:1012D000E6E5F1E0108281839EEF9283EBE3F1E09B
:1012E0001082118212821382148215821682178252
:1012F0001086118612861386148615861686178622
:10130000108A118A128A138A148A158A168A178AF1
:10131000108E118E128EE3E2F1E0108292E891833A
:10132000128290EC938314828583E1E1F1E0808363
:1013300011821282838395EA948315828683878340
:101340001086118690E89287138614861586868704
:101350009787108A918B0895CF93DF9300D000D0A8
:1013600000D0CDB7DEB778948AB582608ABD8AB5E1
:1013700081608ABD83B7826083BF83B7816083BF8A
:1013800089B7826089BF80B7826080BF80B7816083
:1013900080BF329A319A3098379A8CB580648CBD70
:1013A00060E080E0D7D660E082E0D4D660E081E003
:1013B000D1D660E083E0CED680E0A4D6892B09F0B8
:1013C000F1C182E09FD6892B09F0ECC18FEF8093A9
:1013D00023019FDD64E670E080E090E037D88091E3
:1013E000A800811145C010929A00109299008FEFC9
:1013F00080939D0080939E0080939F008093A00027
:101400008093A1008093A20081E08093A3001092BA
:10141000A5001092A40010929C0010929B00809155
:10142000FE009091FF00892B31F487E990E09093C2
:10143000FF008093FE00E0919500F09196003097B8
:1014400021F087E990E09583848387E990E0909389
:101450009600809395001092A7001092A6008DE749
:1014600090E0909398008093970081E08093A8008B
:10147000BC9A8BE391E090939A008093990089E065
:1014800090E09093A5008093A40080910701909133
:101490000801A0910901B0910A01843CF9E09F077D
:1014A000A105B10520F484EC99E0A0E0B0E08093C0
:1014B000070190930801A0930901B0930A011FEF5F
:1014C00010939D008DE780939E0010939F00809164
:1014D00061008093040168E572E080E090E0E6D767
:1014E0001D831C821E83F12CEBE3CE2EE1E0DE2E69
:1014F00003E511E0F801A291929182918F0183831B
:101500009483A583CE16DF06A9F76BE371E0CE01C5
:10151000049604D88C81853A08F092C1885F8C8348
:1015200070D662E370E080E090E0C0D7FAE0FF128E
:10153000DFCF64E670E080E090E0B8D7DC80E12C9B
:10154000F12CE3E5F1E0A29192918291838394835F
:10155000A5830E171F07B9F76BE371E0CE01049660
:10156000DDD78C8129E02E1508F46CC1885F8C834F
:10157000E39447D66DE270E080E090E097D784E195
:10158000F812DFCF8091B7008150823030F48C8127
:10159000809356018D8180935701BE016F5F7F4F0D
:1015A000CE010496BBD7AE014F5F5F4F69E070E09C
:1015B0008BE391E05AD8BE016F5F7F4FCE01049656
:1015C000ADD7AE014F5F5F4F66E070E08BEC90E00F
:1015D0004CD817D668EC70E080E090E067D70FDB5E
:1015E000F89480E28BBFA89AAA9AA99A789457E4B3
:1015F000452E50E0552E60E0262E60E0362E73E03A
:10160000D72ECC24C39444E0A42E8091F3008823E9
:1016100049F11092F2008091B4006091B50044DC71
:10162000082F8093B5008091B2006091B3003CDC3C
:10163000182F8093B3008091B0006091B10034DC2A
:101640008093B100902F9D7F913009F00DC1123031
:1016500009F0FFC01092B300D092B500A092F20042
:101660001092F3008091F200882359F09091F100DC
:10167000911110C161E070E0853009F40FC1109242
:10168000F20080916200882309F45BC08091EF0032
:101690009091F000892B51F482E1EBECF0E0ADED9C
:1016A000B0E001900D928A95E1F7A9DA809162008D
:1016B000882309F4B1C10091EF001091F0000F3FB1
:1016C000110511F00CF0A8C19DED892E90E0992E26
:1016D0002BEC622E20E0722E39EBE32E30E0F32E5D
:1016E000B02E1127F401408131812281BB2039F0D5
:1016F000FFEFBF125DC1F701408131812281F3010B
:10170000408331832283A4DBF3E08F0E911C23E01E
:10171000620E711C83E0E80EF11C9FEE891690E0CA
:10172000990601F761E070E080E090E0BFD669D5EE
:101730008091EF009091F00002969093F0008093DA
:10174000EF008091F100811180C1DCD4892B09F078
:101750007CC182E0D7D4892B09F077C161E083E0B6
:10176000F9D4F2018491EDE3F0E01491E3E3F0E0C9
:101770000491002389F08111AFD4E02FF0E0EE0F47
:10178000FF1FE65DFF4FA591B4918FB7F8949C9130
:10179000109519231C938FBF2114310409F435CF00
:1017A0002FD431CF64E170E080E090E04FD6F3E2D7
:1017B000EF2EF1E0FF2E10E000E0C8014AD1F70162
:1017C00081937F010F5F1F4F08311105B1F764E16D
:1017D00070E080E090E03AD680912301823209F0F7
:1017E000FECD80912401809361008091250180933A
:1017F000B70080912601809360008091270180933B
:101800005601609128016093570170E090E080E0FC
:10181000C9D126E935E946E95EE350D220E030E05F
:1018200044E353E42DD190D16093580182E1E9E281
:10183000F1E0A1E1B1E001900D928A95E1F7CFCD01
:10184000F3946ECE88508C83D81608F0DC82F39423
:1018500090CE823009F004CF1092B100D092B50042
:1018600095E09093F200FCCE023029F41092B5007E
:10187000C092F200F5CE123029F41092B30010930A
:10188000F200EECE823009F0EBCE1092B100D09291
:10189000F200E6CE843029F46FEF7FEF85E0A9DB1C
:1018A000EECE913059F468EF7FEF823029F083302B
:1018B00009F0E0CE68E070E087E0F1CF923059F4B3
:1018C0006FEF7FEF823029F0833009F0D3CE61E0F3
:1018D00070E084E0E4CF933009F0D1CE813021F480
:1018E00061E070E086E085DB8091F200853021F4D4
:1018F00061E070E088E07DDB8091B700811132C04B
:101900008091B60081110EC08091F200833021F4E5
:1019100061E070E082E0C3CF6FEF7FEF823009F0CB
:10192000AECEBDCF813071F48091F20068E070E0FE
:10193000833029F0823009F0A2CE68EF7FEF81E09A
:101940000DDC9DCE823009F09ACE8091F20068E0E5
:1019500070E0833029F0823009F091CE68EF7FEF9C
:1019600080E0EECF9FEF980F923090F48091B60018
:10197000811114C08091F20068E070E0833009F4B6
:101980008ECF823009F07BCE68EF7FEF83E087CF88
:10199000833051F48091B600882331F28091B600F3
:1019A000813009F06CCED1CF933008F068CEF6CFFD
:1019B000F701A081B0E0FD01F42B842F90E0B80185
:1019C000E8D1E81BF90BCD01B801E3D18E0F9F1FC1
:1019D000492FF701A181B0E0FD01F32B832F90E0A7
:1019E000B801D7D1E81BF90BCD01B801D2D18E0FC8
:1019F0009F1F392FF701A281B0E0FD01F22B822F4A
:101A000090E0B801C6D1E81BF90BCD01B801C1D1F6
:101A10008E0F9F1F292F73CEC092B80082E1E9EB91
:101A2000F0E0ABECB0E001900D928A95E1F710DAAE
:101A3000E8D31092F0001092EF00809162008130A4
:101A400009F07FCE109262007CCE60E083E082D30A
:101A5000A3CEE199FECF9FBB8EBBE09A99278DB3B1
:101A60000895262FE199FECF1CBA9FBB8EBB2DBBDC
:101A70000FB6F894E29AE19A0FBE01960895505875
:101A8000BB27AA270ED0E0C0D1D030F0D6D020F0AE
:101A900031F49F3F11F41EF4C6C00EF4E095E7FB4D
:101AA000BCC0E92FE2D080F3BA176207730784073E
:101AB000950718F071F49EF5FAC00EF4E0950B2E20
:101AC000BA2FA02D0B01B90190010C01CA01A00190
:101AD0001124FF27591B99F0593F50F4503E68F1EB
:101AE0001A16F040A22F232F342F4427585FF3CF2C
:101AF000469537952795A795F0405395C9F77EF4FD
:101B00001F16BA0B620B730B840BBAF09150A1F045
:101B1000FF0FBB1F661F771F881FC2F70EC0BA0FCB
:101B2000621F731F841F48F4879577956795B79553
:101B3000F7959E3F08F0B3CF9395880F08F099274B
:101B4000EE0F97958795089598D088F09F5790F05D
:101B5000B92F9927B751A0F0D1F0660F771F881FD2
:101B6000991F1AF0BA95C9F712C0B13081F09FD011
:101B7000B1E008959CC0672F782F8827B85F39F0AF
:101B8000B93FCCF3869577956795B395D9F73EF431
:101B900090958095709561957F4F8F4F9F4F0895D9
:101BA000E89409C097FB3EF49095809570956195F7
:101BB0007F4F8F4F9F4F9923A9F0F92F96E9BB27AD
:101BC0009395F695879577956795B795F111F8CF29
:101BD000FAF4BB0F11F460FF1BC06F5F7F4F8F4F94
:101BE0009F4F16C0882311F096E911C0772321F08A
:101BF0009EE8872F762F05C0662371F096E8862F22
:101C000070E060E02AF09A95660F771F881FDAF778
:101C1000880F9695879597F9089597F99F6780E8BB
:101C200070E060E008959FEF80EC089500240A942E
:101C30001616170618060906089500240A941216A7
:101C40001306140605060895092E0394000C11F4DA
:101C5000882352F0BB0F40F4BF2B11F460FF04C087
:101C60006F5F7F4F8F4F9F4F089557FD9058440FE0
:101C7000551F59F05F3F71F04795880F97FB991FEB
:101C800061F09F3F79F087950895121613061406A8
:101C9000551FF2CF4695F1DF08C016161706180635
:101CA000991FF1CF86957105610508940895E89410
:101CB000BB2766277727CB0197F908950AD0C4CFB1
:101CC000B5DF28F0BADF18F0952309F0A6CFABCF27
:101CD000EFCFCBDFA8F39923D9F35523C9F3950FA1
:101CE00050E0551FAA27EE27FF27BB2700240894A2
:101CF000679520F4E20FF31FB41F0A1E220F331F53
:101D0000441FAA1F6695A9F7779530F4F30FB41F07
:101D10000A1E121E08F46395330F441FAA1F221FC8
:101D2000769599F7879520F4B40F0A1E121E631F4B
:101D3000440FAA1F221F331F8695A9F7862F712DE6
:101D4000602D11249F5750408AF0E1F088234AF01B
:101D5000EE0FFF1FBB1F661F771F881F915050405B
:101D6000A9F79E3F510570F058CFA2CF5F3FECF32B
:101D7000983EDCF3869577956795B795F795E79547
:101D80009F5FC1F7FE2B880F911D9695879597F958
:101D900008950024552704C0080E591F880F991F65
:101DA000009729F076956795B8F37105B9F7802DFE
:101DB000952F0895EE27FF27AA27BB2708C0A20F5B
:101DC000B31FE41FF51F220F331F441F551F9695A5
:101DD00087957795679598F37040A9F7009799F7DD
:101DE000BD01CF01089597FB072E16F4009406D08D
:101DF00077FD08D02DD007FC05D03EF49095819555
:101E00009F4F0895709561957F4F0895A1E21A2E16
:101E1000AA1BBB1BFD010DC0AA1FBB1FEE1FFF1F8E
:101E2000A217B307E407F50720F0A21BB30BE40BDE
:101E3000F50B661F771F881F991F1A9469F7609525
:101E40007095809590959B01AC01BD01CF010895DF
:101E5000AA1BBB1B51E107C0AA1FBB1FA617B707D0
:101E600010F0A61BB70B881F991F5A95A9F78095EC
:101E70009095BC01CD010895EE0FFF1F0590F491E0
:101E8000E02D099481E090E0F89400C0F894FFCF31
:101E900010500103040506070800000000A807A869
:101EA00007A80768076407610700000000BD056216
:0C1EB0000560056807640769008B0300EB
:00000001FF
